:100000000C9446000C9465000C9465000C946500FB
:100010000C9465000C9465000C9465000C946500CC
:100020000C9465000C9465000C9465000C946500BC
:100030000C9465000C9465000C9465000C946500AC
:100040000C9465000C9465000C9465000C9465009C
:100050000C9465000C9465000C9465000C9465008C
:100060000C9465000C9465000C9465000C9465007C
:100070000C9465000C9465000C9465000C9465006C
:100080000C9465000C9465000C94650011241FBE4F
:10009000CFEFD0E4DEBFCDBF11E0A0E0B1E0EEE7EE
:1000A000F8E000E00BBF02C007900D92A431B10749
:1000B000D9F721E0A4E1B1E001C01D92AC31B20753
:1000C000E1F70E944D010C943D040C940000CF9385
:1000D000DF9300D01F92CDB7DEB789837B836A831D
:1000E00089818A3031F48A819B81BC018DE00E9434
:1000F000670080EC90E0FC018081882F90E08072A6
:100100009927892BB1F386EC90E02981FC012083AB
:1001100080E090E00F900F900F90DF91CF910895C5
:10012000CF93DF93CDB7DEB7809114019091150185
:100130008230910531F18330910528F4009769F000
:10014000019791F054C08430910549F184309105B4
:10015000F8F0059709F440C04AC081E090E0909320
:1001600015018093140149C080E290E0FC01808178
:1001700080E290E0FC01808180E290E0FC018081DF
:100180003CC084E090E0909315018093140135C049
:1001900084E090E090931501809314012EC080E2DA
:1001A00090E0FC01808180E290E0FC01808180E2AF
:1001B00090E0FC01808180E290E0FC018081882F4A
:1001C00090E081709927892BB9F085E090E09093B9
:1001D00015018093140110C080E290E0FC01808141
:1001E00085E090E0909315018093140106C0109271
:1001F00015011092140101C000008091140190912A
:10020000150182309105A9F08330910528F40097FB
:1002100061F00197C9F13DC084309105B9F1843096
:10022000910528F1059769F134C087E080930E01AC
:1002300030C080910E01893028F480910E018F5FCB
:1002400080930E0180910E01882F90E0292F2F932B
:100250008F938FE091E0892F8F938FE091E08F93C0
:100260000E946F010F900F900F900F9012C080911D
:100270000E01882369F080910E01815080930E0158
:1002800007C010920E0105C0000003C0000001C0AD
:1002900000000000DF91CF910895CF93DF93CDB799
:1002A000DEB781E290E0FC01108282E290E0FC0186
:1002B000108287E290E02FEFFC01208388E290E03B
:1002C000FC01108210921501109214010E949000FE
:1002D00088E290E020910E01FC012083F7CFCF93BC
:1002E000DF93CDB7DEB7AE014B5F5F4FFA0161918F
:1002F0007191AF0180911801909119010E948301C1
:10030000DF91CF9108952F923F924F925F926F921B
:100310007F928F929F92AF92BF92CF92DF92EF9295
:10032000FF920F931F93CF93DF93CDB7DEB72B9739
:100330000FB6F894DEBF0FBECDBF6C017B018A0102
:10034000FC0117821682838181FFCCC1CE01019608
:100350003C01F6019381F70193FD859193FF819113
:100360007F01882309F4BAC1853239F493FD859160
:1003700093FF81917F01853229F4B60190E00E94BC
:10038000A303E7CF912C212C312CFFE1F315D8F0FA
:100390008B3279F038F4803279F08332A1F4232D56
:1003A00020611DC08D3261F0803369F4232D2160FE
:1003B00016C0832D8260382EE32DE4603E2E2AC0C5
:1003C000F32DF8601DC037FC2DC020ED280F2A301A
:1003D00040F08E32B9F436FC81C1232D2064322ED8
:1003E00019C036FE06C08AE0989E200D1124922E78
:1003F00011C0EAE02E9E200D1124222EF32DF06272
:100400003F2E08C08C3621F4832D8068382E02C020
:10041000883641F4F70193FD859193FF81917F0127
:100420008111B3CF982F9F7D9554933028F40C5FA2
:100430001F4F9FE399830DC0833631F0833771F0EE
:10044000833509F059C021C0F801808189830E5F8E
:100450001F4F88248394912C530113C02801F2E08C
:100460004F0E511CF801A080B18036FE03C0692DEB
:1004700070E002C06FEF7FEFC5010E9498034C014E
:100480008201F32DFF773F2E16C0280122E0420E95
:10049000511CF801A080B18036FE03C0692D70E0C8
:1004A00002C06FEF7FEFC5010E948D034C01F32D59
:1004B000F0683F2E820133FC1BC0822D90E088162D
:1004C0009906B0F4B60180E290E00E94A3032A945A
:1004D000F4CFF50137FC859137FE81915F01B601BC
:1004E00090E00E94A30321102A9421E0821A91082F
:1004F0008114910471F7E8C0843611F0893641F512
:10050000F80137FE07C060817181828193810C5FA1
:100510001F4F08C060817181072E000C880B990B5A
:100520000E5F1F4FF32DFF763F2E97FF09C090956A
:100530008095709561957F4F8F4F9F4FF0683F2E4C
:100540002AE030E0A3010E94DF03882E861845C010
:10055000853731F4232D2F7EB22E2AE030E025C0DE
:10056000932D997FB92E8F36C1F018F4883579F024
:10057000B5C0803719F0883721F0B0C0E92FE061AD
:10058000BE2EB4FE0DC0FB2DF460BF2E09C034FE9C
:100590000AC0292F2660B22E06C028E030E005C030
:1005A00020E130E002C020E132E0F801B7FE07C0F0
:1005B00060817181828193810C5F1F4F06C06081D1
:1005C000718180E090E00E5F1F4FA3010E94DF0366
:1005D000882E8618FB2DFF773F2E36FE0DC0232D6B
:1005E0002E7FA22E891458F434FE0BC032FC09C0B1
:1005F000832D8E7EA82E05C0B82CA32C03C0B82C4A
:1006000001C0B92CA4FE0FC0FE01E80DF11D8081D0
:10061000803321F49A2D997EA92E09C0A2FE06C02E
:10062000B394B39404C08A2D867809F0B394A3FCE4
:1006300011C0A0FE06C0B21488F4280C922C9B189E
:100640000EC0B21460F4B60180E290E00E94A303F1
:10065000B394F7CFB21418F42B1802C0982C212CA5
:10066000A4FE10C0B60180E390E00E94A303A2FEA6
:1006700017C0A1FC03C088E790E002C088E590E0C5
:10068000B6010CC08A2D867859F0A1FE02C08BE21B
:1006900001C080E2A7FC8DE2B60190E00E94A303B6
:1006A000891438F4B60180E390E00E94A3039A9481
:1006B000F7CF8A94F301E80DF11D8081B60190E037
:1006C0000E94A3038110F5CF222009F442CEB60187
:1006D00080E290E00E94A3032A94F6CFF60186817F
:1006E000978102C08FEF9FEF2B960FB6F894DEBF75
:1006F0000FBECDBFDF91CF911F910F91FF90EF9073
:10070000DF90CF90BF90AF909F908F907F906F9031
:100710005F904F903F902F900895FC01059061509D
:1007200070400110D8F7809590958E0F9F1F089507
:10073000FC016150704001900110D8F780959095B0
:100740008E0F9F1F08950F931F93CF93DF93FB018D
:10075000238121FD03C08FEF9FEF2CC022FF16C025
:1007600046815781248135814217530744F4A08183
:10077000B1819D012F5F3F4F318320838C93268170
:1007800037812F5F3F4F3783268314C08B01EC01E5
:10079000FB010084F185E02D0995892BE1F6D80154
:1007A00016968D919C911797019617969C938E9310
:1007B0001697CE01DF91CF911F910F910895FA0105
:1007C000AA27283051F1203181F1E8946F936E7F90
:1007D0006E5F7F4F8F4F9F4FAF4FB1E03ED0B4E081
:1007E0003CD0670F781F891F9A1FA11D680F791FC2
:1007F0008A1F911DA11D6A0F711D811D911DA11DD3
:1008000020D009F468943F912AE0269F11243019E2
:10081000305D3193DEF6CF010895462F4770405D7D
:100820004193B3E00FD0C9F7F6CF462F4F70405D2C
:100830004A3318F0495D31FD4052419302D0A9F787
:10084000EACFB4E0A6959795879577956795BA9581
:10085000C9F700976105710508959B01AC010A2E47
:1008600006945795479537952795BA95C9F7620F1E
:0E087000731F841F951FA01D0895F894FFCFDD
:10087E000000000200000000670000000000076397
:04088E00203D2000E9
:00000001FF
